:020000040000fa
:080000000001040000000000f3
:020000040000fa
:0400080036020000bc
:020000040000fa
:04000c0036020000b8
:020000040000fa
:0400100036020000b4
:020000040000fa
:0400140036020000b0
:020000040000fa
:0400180036020000ac
:020000040000fa
:04001c0036020000a8
:020000040000fa
:0400200036020000a4
:020000040000fa
:0400240036020000a0
:020000040000fa
:04002800c80100000b
:020000040000fa
:04002c003602000098
:020000040000fa
:040030003602000094
:020000040000fa
:040034003602000090
:020000040000fa
:04003800360200008c
:020000040000fa
:04003c003602000088
:020000040000fa
:040040003602000084
:020000040000fa
:040044003602000080
:020000040000fa
:04004800360200007c
:020000040000fa
:04004c003602000078
:020000040000fa
:040050003602000074
:020000040000fa
:040054003602000070
:020000040000fa
:04005800360200006c
:020000040000fa
:04005c003602000068
:020000040000fa
:040060003602000064
:020000040000fa
:040064003602000060
:020000040000fa
:04006800360200005c
:020000040000fa
:04006c003602000058
:020000040000fa
:040070003602000054
:020000040000fa
:040074003602000050
:020000040000fa
:04007800360200004c
:020000040000fa
:04007c003602000048
:020000040000fa
:040080003602000044
:020000040000fa
:040084003602000040
:020000040000fa
:04008800360200003c
:020000040000fa
:04008c003602000038
:020000040000fa
:040090003602000034
:020000040000fa
:040094003602000030
:020000040000fa
:04009800360200002c
:020000040000fa
:04009c003602000028
:020000040000fa
:0400a0003602000024
:020000040000fa
:0400a4003602000020
:020000040000fa
:0400a800360200001c
:020000040000fa
:0400ac003602000018
:020000040000fa
:0400b0003602000014
:020000040000fa
:0400b4003602000010
:020000040000fa
:0400b800360200000c
:020000040000fa
:0400bc003602000008
:020000040000fa
:0400c0003602000004
:020000040000fa
:0400c4003602000000
:020000040000fa
:0400c80036020000fc
:020000040000fa
:0400cc0036020000f8
:020000040000fa
:0400d00036020000f4
:020000040000fa
:0400d40036020000f0
:020000040000fa
:0400d80036020000ec
:020000040000fa
:0401080036020000bb
:020000040000fa
:04010c0036020000b7
:020000040000fa
:0401100036020000b3
:020000040000fa
:0401140036020000af
:020000040000fa
:0401180036020000ab
:020000040000fa
:04011c0036020000a7
:020000040000fa
:0401200036020000a3
:020000040000fa
:04012400360200009f
:020000040000fa
:04012800360200009b
:020000040000fa
:04012c003602000097
:020000040000fa
:040130003602000093
:020000040000fa
:04013400360200008f
:020000040000fa
:04013800360200008b
:020000040000fa
:04013c003602000087
:020000040000fa
:040140003602000083
:020000040000fa
:04014400360200007f
:020000040000fa
:04014800360200007b
:020000040000fa
:04014c003602000077
:020000040000fa
:040150003602000073
:020000040000fa
:04015400360200006f
:020000040000fa
:04015800360200006b
:020000040000fa
:04015c003602000067
:020000040000fa
:040160003602000063
:020000040000fa
:04016400360200005f
:020000040000fa
:04016800360200005b
:020000040000fa
:04016c003602000057
:020000040000fa
:040170003602000053
:020000040000fa
:04017400360200004f
:020000040000fa
:04017800360200004b
:020000040000fa
:04017c003602000047
:020000040000fa
:040180003602000043
:020000040000fa
:04018400360200003f
:020000040000fa
:04018800360200003b
:020000040000fa
:04018c003602000037
:020000040000fa
:040190003602000033
:020000040000fa
:04019400360200002f
:020000040000fa
:04019800360200002b
:020000040000fa
:04019c003602000027
:020000040000fa
:0401a0003602000023
:020000040000fa
:0401a400360200001f
:020000040000fa
:0401a800360200001b
:020000040000fa
:0401ac003602000017
:020000040000fa
:0401b0003602000013
:020000040000fa
:0401b400360200000f
:020000040000fa
:0401b800360200000b
:020000040000fa
:0401bc003602000007
:020000040000fa
:0401c0003602000003
:020000040000fa
:0401c40036020000ff
:020000040000fa
:0401c80036020000fb
:020000040000fa
:0401cc0036020000f7
:020000040000fa
:0401d00036020000f3
:020000040000fa
:0401d40036020000ef
:020000040000fa
:0401d80036020000eb
:020000040000fa
:100200000f8020000eff20000e018800000000007b
:10021000000020000000e000020032000001200089
:100220002002880014000700980007000000e0008a
:1002300003003a0000002000010020000200370007
:100240000000200001002000810f7000010032003a
:1002500014000700000020000000e000020032004f
:100260000000020000000000480202000000000040
:100270000040da000000fe004440a9000000200019
:100280000000e0000300320000002000a001880010
:100290004440a800000006008a1f78008b1f7800e9
:1002a0000000060091018800800478000000eb0047
:1002b0001a003700e284440032a0b4009905ba0065
:1002c000e284440032a0b4009906ba00e2844400fb
:1002d00032a0b4000006eb00476fde00fd07b2005d
:1002e000636ce10003003a00ebff07000000eb0045
:1002f0000a003700606ce10004003a00005deb008a
:100300008b05e900fdff3e00040037006168e10055
:10031000010032000086eb000b00070019c7ba008d
:100320001905ba000e04e00003003a000a00e000dc
:10033000e0ff3a0000000600fe07b2009e018800c0
:100340008a047800f5ff3700395dba008b05e900b3
:100350000c003200295dba008b05e900080032006c
:100360000c00e00003003a00e284440032a0b40034
:10037000f5ff370019ddba008b05e900faff3a00f6
:100380008904e800e184440032a0b40000000600c3
:100390003600f800809fbe00829fbe00849fbe0092
:1003a000869fbe003400f80000002000a0018800f5
:1003b0000c00fa000000eb00320007000e80e8009d
:1003c00032452700132627000288be006400400043
:1003d00042e72200e3e222000288be0064004000ff
:1003e0008040eb00014878000000e8000000eb00ce
:1003f0002400070010003700dc02a80010c0b30082
:100400009900070020c0b300970007000000eb0030
:10041000000f7800050037000e80e8001e00400045
:10042000104078009c0007001e0fe8001e007800b6
:10043000e70f5000f8ff3400d01680006400600021
:100440000000e000ecff32008400a9000080fa0008
:100450003400f9004f03be004f02be004f01be0042
:100460004f00be003600f900004006000040da00f0
:100470000000fe000021ef0011088800200888001d
:1004800000000600000888000000060000000500cb
:020000040000fa
:100490000c00fa008200a8008c00a80010002000c8
:1004a000a00488000080eb00100798009e009000d8
:1004b00090fb2f00efff0700720020008007200054
:1004c000a109200033742000804978008149780018
:1004d000824978000001eb006004200071052000d3
:1004e000237420008049780081497800824978008f
:1004f000d802a900d842a800cc22ef0000ff2f00ac
:1005000030168800a802a800a822a800a842a800c7
:10051000a862a800d1c2a900d1a2a900d1e2a80076
:10052000000120003100070030c0b3004000070088
:10053000500020002d00070030c0b3003c00070031
:10054000100020002900070030c0b3003800070069
:10055000500020002500070020c0b3003400070031
:1005600080c2b3004000070080c0b3003e00070017
:1005700010c0b3003c00070060c0b3003a000700a1
:10058000f0c0b3003800070050d426000147270010
:10059000200798003107980090e72200e1e222004e
:1005a0004007980051079800dc02a90010c0b30072
:1005b0002d00070020c0b3002b0007000000eb0057
:1005c000000f780005003700640047001e0040005f
:1005d00010407800300007001e0fe8001e00780071
:1005e000e70f5000f8ff3600e7ff37000200fa007f
:1005f000000f78000300370080bb200001002000be
:10060000310007001e00780000f0a7000000ea009b
:100610000000ea004f00de00004078001e0fe900f5
:100620000004e000f4ff3a000080fa000000060039
:100630000200fa00004f78001e80fb005016880070
:1006400010002000e9ff0700d1e2a90010002000ff
:10065000e6ff0700d1e2a80020002000e3ff07002a
:100660000080fa00000006000200fa00004f780047
:10067000d1a2a9001e80fb004400de0000407800eb
:10068000ebff07009e4078006fc06000e8ff0700a6
:100690000080fa00000006000200fa00004f780017
:1006a000d1a2a8001e80fb004400de0000407800bc
:1006b000dfff07009e4078006fc06000dcff07008e
:0806c0000080fa0000000600b2
:020000040000fa
:1006c800f03fb1000180b10006003500ee030900db
:1006d80000000000403fb1000180b100fbff3d0079
:1006e8001000b000203fb000020035000080090073
:0806f8000000000000000600f4
:020000040000fa
:0200000401f009
:04000000f0bd00004f
:020000040000fa
:0200000401f009
:04000400ff7f00007a
:020000040000fa
:0200000401f009
:04000800ff7f000076
:00000001FF
